:020000040000fa
:080000000002040000000000f2
:020000040000fa
:0400080022030000cf
:020000040000fa
:04000c006403000089
:020000040000fa
:04001000c403000025
:020000040000fa
:0400140042030000a3
:020000040000fa
:04001800840300005d
:020000040000fa
:04001c00a403000039
:020000040000fa
:04002000e4030000f5
:020000040000fa
:04002400a60400002e
:020000040000fa
:04002800a60400002a
:020000040000fa
:04002c00a604000026
:020000040000fa
:04003000a604000022
:020000040000fa
:0400340010040000b4
:020000040000fa
:04003800a60400001a
:020000040000fa
:04003c00a604000016
:020000040000fa
:04004000a604000012
:020000040000fa
:04004400a60400000e
:020000040000fa
:04004800a60400000a
:020000040000fa
:04004c00a604000006
:020000040000fa
:04005000a604000002
:020000040000fa
:040054004004000064
:020000040000fa
:04005800a6040000fa
:020000040000fa
:04005c006604000036
:020000040000fa
:04006000a6040000f2
:020000040000fa
:04006400a6040000ee
:020000040000fa
:04006800a6040000ea
:020000040000fa
:04006c00a6040000e6
:020000040000fa
:04007000a6040000e2
:020000040000fa
:04007400a6040000de
:020000040000fa
:04007800a6040000da
:020000040000fa
:04007c00a6040000d6
:020000040000fa
:04008000a6040000d2
:020000040000fa
:04008400a6040000ce
:020000040000fa
:04008800a6040000ca
:020000040000fa
:04008c00a6040000c6
:020000040000fa
:04009000a6040000c2
:020000040000fa
:04009400a6040000be
:020000040000fa
:04009800a6040000ba
:020000040000fa
:04009c00a6040000b6
:020000040000fa
:0400a000a6040000b2
:020000040000fa
:0400a400a6040000ae
:020000040000fa
:0400a800a6040000aa
:020000040000fa
:0400ac00a6040000a6
:020000040000fa
:0400b000a6040000a2
:020000040000fa
:0400b400a60400009e
:020000040000fa
:0400b800a60400009a
:020000040000fa
:0400bc00a604000096
:020000040000fa
:0400c000a604000092
:020000040000fa
:0400c400a60400008e
:020000040000fa
:0400c800a60400008a
:020000040000fa
:0400cc00a604000086
:020000040000fa
:0400d000a604000082
:020000040000fa
:0400d400a60400007e
:020000040000fa
:0400d800a60400007a
:020000040000fa
:0400dc00a604000076
:020000040000fa
:0400e000a604000072
:020000040000fa
:0400e400a60400006e
:020000040000fa
:0400e800a60400006a
:020000040000fa
:0400ec00a604000066
:020000040000fa
:0400f000a604000062
:020000040000fa
:0400f400a60400005e
:020000040000fa
:0400f800a60400005a
:020000040000fa
:0400fc00a604000056
:020000040000fa
:04010000a604000051
:020000040000fa
:04010400a60400004d
:020000040000fa
:04010800a604000049
:020000040000fa
:04010c00a604000045
:020000040000fa
:04011000a604000041
:020000040000fa
:04011400a60400003d
:020000040000fa
:04011800a604000039
:020000040000fa
:04011c00a604000035
:020000040000fa
:04012000a604000031
:020000040000fa
:04012400a60400002d
:020000040000fa
:04012800a604000029
:020000040000fa
:04012c00a604000025
:020000040000fa
:04013000a604000021
:020000040000fa
:04013400a60400001d
:020000040000fa
:04013800a604000019
:020000040000fa
:04013c00a604000015
:020000040000fa
:04014000a604000011
:020000040000fa
:04014400a60400000d
:020000040000fa
:04014800a604000009
:020000040000fa
:04014c00a604000005
:020000040000fa
:04015000a604000001
:020000040000fa
:04015400a6040000fd
:020000040000fa
:04015800a6040000f9
:020000040000fa
:04015c00a6040000f5
:020000040000fa
:04016000a6040000f1
:020000040000fa
:04016400a6040000ed
:020000040000fa
:04016800a6040000e9
:020000040000fa
:04016c00a6040000e5
:020000040000fa
:04017000a6040000e1
:020000040000fa
:04017400a6040000dd
:020000040000fa
:04017800a6040000d9
:020000040000fa
:04017c00a6040000d5
:020000040000fa
:04018000a6040000d1
:020000040000fa
:04018400a6040000cd
:020000040000fa
:04018800a6040000c9
:020000040000fa
:04018c00a6040000c5
:020000040000fa
:04019000a6040000c1
:020000040000fa
:04019400a6040000bd
:020000040000fa
:04019800a6040000b9
:020000040000fa
:04019c00a6040000b5
:020000040000fa
:0401a000a6040000b1
:020000040000fa
:0401a400a6040000ad
:020000040000fa
:0401a800a6040000a9
:020000040000fa
:0401ac00a6040000a5
:020000040000fa
:0401b000a6040000a1
:020000040000fa
:0401b400a60400009d
:020000040000fa
:0401b800a604000099
:020000040000fa
:0401bc00a604000095
:020000040000fa
:0401c000a604000091
:020000040000fa
:0401c400a60400008d
:020000040000fa
:0401c800a604000089
:020000040000fa
:0401cc00a604000085
:020000040000fa
:0401d000a604000081
:020000040000fa
:0401d400a60400007d
:020000040000fa
:0401d800a604000079
:020000040000fa
:0401dc00a604000075
:020000040000fa
:0401e000a604000071
:020000040000fa
:0401e400a60400006d
:020000040000fa
:0401e800a604000069
:020000040000fa
:0401ec00a604000065
:020000040000fa
:0401f000a604000061
:020000040000fa
:0401f400a60400005d
:020000040000fa
:0401f800a604000059
:020000040000fa
:0401fc00a604000055
:020000040000fa
:04020000a604000050
:020000040000fa
:04020400a60400004c
:020000040000fa
:04020800a604000048
:020000040000fa
:04020c00a604000044
:020000040000fa
:04021000a604000040
:020000040000fa
:04021400a60400003c
:020000040000fa
:04021800a604000038
:020000040000fa
:04021c00a604000034
:020000040000fa
:04022000a604000030
:020000040000fa
:04022400a60400002c
:020000040000fa
:04022800a604000028
:020000040000fa
:04022c00a604000024
:020000040000fa
:04023000a604000020
:020000040000fa
:04023400a60400001c
:020000040000fa
:04023800a604000018
:020000040000fa
:04023c00a604000014
:020000040000fa
:04024000a604000010
:020000040000fa
:04024400a60400000c
:020000040000fa
:04024800a604000008
:020000040000fa
:04024c00a604000004
:020000040000fa
:04025000a604000000
:020000040000fa
:04025400a6040000fc
:020000040000fa
:04025800a6040000f8
:020000040000fa
:04025c00a6040000f4
:020000040000fa
:04026000a6040000f0
:020000040000fa
:04026400a6040000ec
:020000040000fa
:04026800a6040000e8
:020000040000fa
:04026c00a6040000e4
:020000040000fa
:04027000a6040000e0
:020000040000fa
:04027400a6040000dc
:020000040000fa
:04027800a6040000d8
:020000040000fa
:04027c00a6040000d4
:020000040000fa
:04028000a6040000d0
:020000040000fa
:10040000af5821000eff27000e01880000000000f9
:10041000000020000000e000020032000001200087
:100420002002880014000700fb0107000000e00024
:1004300003003a000080280001002000020037007d
:100440000000200001002000810f70000100320038
:100450000f000700000020000000e0000200320052
:100460000000020000000000f29002000000000006
:100470000040da000000fe00a04c20000000e00078
:1004800002003200002020009001880000000600d9
:10049000a1028800800478000000eb001f003700f4
:1004a000e284440054a0b4009905ba00e2844400f8
:1004b00054a0b4009906ba00e284440054a0b400e9
:1004c0000006eb00476fde00fd07b200ae018800ba
:1004d000636ce10003003a000ad801000000eb0061
:1004e0000e003700606ce10008003a00004deb00a0
:1004f0000a05e800020039003420ec000af0a000f0
:100500008b05e900f9ff3e00040037006168e10057
:10051000010032000086eb000b00070019c7ba008b
:100520000e04e0001905ba0003003a000a00e000da
:10053000dbff3a0000000600fe07b200ae028800b2
:100540008a047800f5ff37000cd0a300e20f4d00bd
:100550001c003b0089027800354dba000a05e8000e
:10056000020039003420ec000af0a0008b05e900fd
:100570000f003200254dba000a05e80002003900dc
:100580003420ec000af0a0008b05e90008003200de
:100590000c00e0000600320015cdba000a05e800a4
:1005a000020039003420ec000af0a0008b05e900bd
:1005b0008984e80054a0b4000b00e000e2ff3a0098
:1005c000000006009902ba00055d78008b05e9007d
:1005d000f7ff3200c82ade00055d78008b05e900d0
:1005e000f3ff32000c00e000f1ff320019ddba0029
:1005f000eeff37007290040000000000a691040096
:1006000000000000c81a040000000000524304006b
:10061000000000003045040000000000dc4304003e
:10062000000000004c44040000000000e04404000e
:10063000000000000000040000000000524304001d
:10064000000000003600f800809fbe00829fbe00c0
:10065000849fbe00869fbe000000fa00c028a9004b
:100660000000eb00543e07000080fa004f03be007c
:100670004f02be004f01be004f00be003600f90021
:10068000004006003600f800809fbe00829fbe003a
:10069000849fbe00869fbe000000fa004d3e07000a
:1006a000c048a90010002000433e07000080fa0067
:1006b0004f03be004f02be004f01be004f00be0000
:1006c0003600f900004006003600f800809fbe00aa
:1006d000829fbe00849fbe00869fbe000000fa007d
:1006e000c068a90020002000333e07000080fa0007
:1006f0004f03be004f02be004f01be004f00be00c0
:100700003600f900004006003600f800809fbe0069
:10071000829fbe00849fbe00869fbe000000fa003c
:10072000c088a90030002000233e07000080fa00a6
:100730004f03be004f02be004f01be004f00be007f
:100740003600f900004006003600f800809fbe0029
:10075000829fbe00849fbe00869fbe000000fa00fc
:10076000c0a8a90040002000133e07000080fa0046
:100770004f03be004f02be004f01be004f00be003f
:100780003600f900004006003600f800809fbe00e9
:10079000829fbe00849fbe00869fbe000000fa00bc
:1007a000c608a90070002000033e07000080fa0080
:1007b0004f03be004f02be004f01be004f00be00ff
:1007c0003600f900004006003600f800809fbe00a9
:1007d000829fbe00849fbe00869fbe000000fa007c
:1007e0002146800000022000008060000000e00040
:1007f00003003200c4a8a90090002000ee3d0700cd
:1008000020468000700060000000e000030032001d
:10081000c488a900a0002000e73d0700ffff3700c3
:100820003600f800809fbe00829fbe00849fbe00fd
:10083000869fbe000000fa00108680000000e000e5
:100840000200320010868000000001003086800027
:100850000000e8003086880010c0b300c4f0b70084
:100860000068a9000080fa004f03be004f02be00de
:100870004f01be004f00be003600f90000400600e8
:100880003600f800809fbe00829fbe00849fbe009d
:10089000869fbe000000fa000168a900a73d07007e
:1008a0000004e0000200320040c22d00883d070035
:1008b0000080fa004f03be004f02be004f01be0091
:1008c0004f00be003600f900004006003600f80078
:1008d000809fbe00829fbe00849fbe00869fbe0098
:1008e0003200f8003400f80010002000a001880059
:1008f0000020200000d0fe000000fa00014080002f
:1009000000002200008060000000e00006003200cd
:10091000808680000000e0000200320080868000b7
:100920000000010001a8a9000080fa003400f900cd
:100930003200f9004f03be004f02be004f01be005f
:100940004f00be003600f900004006000040da000b
:100950000000fe000a00fa000000e00037003a0044
:1009600033ac8000e18f510003003200e28f510070
:100970000e003a0009003700002220000000e000cd
:1009800001003a000040da002002e2000b003500ce
:100990002822ef0021e2a8000800370000232000f1
:1009a0000000e00001003a000040da003002e200fe
:1009b000020035003822ef0031e2a8000200780082
:1009c0001a003700040a2000e18f51000b003a00a2
:1009d000030037000402e90002003a000300370078
:1009e000040a20002202ab00faff3200141180003a
:1009f000050037000402e900020032003202ab00b9
:100a0000fcff320094118000610262000900320094
:100a1000e18f510002003a003411800001003700dc
:100a2000b4118000845878000000e9000000e00064
:100a3000e4ff3a00000051000800370023002000c6
:100a4000b3bf9f00c0bf9f00d1bf9f00e2bf9f0008
:100a50006a8057006c2107006fb897000080fa0089
:100a6000000006000a00fa0011002000b1bf9f003c
:100a7000c0bf9f006a805700652107004fb89700ec
:100a80000080fa00000006000a00fa00e20f5000a1
:100a900034003e0030ac8000e10f50000300320013
:100aa000e20f500011003a000c0037000322200032
:100ab0000300e00001003a000040da002002e200fa
:100ac000020035002822ef0021e2a8002342ab00fb
:100ad0000d003a002342a8000b003700032320003a
:100ae0000300e00001003a000040da003002e200ba
:100af000020035003822ef0031e2a8003342ab009b
:100b000001003a003342a800820178000b00370050
:100b10003102fb00e10f500004003a002322ab0039
:100b2000feff3a0024118800030037003322ab0097
:100b3000feff3a00a41188008301e9000300e000f1
:100b4000f3ff3a00e10f500003003a002302ab002c
:100b5000feff32000b0037003302ab00feff320015
:100b60000800370033002000b3bf9f00c0bf9f00c4
:100b7000d1bf9f00e2bf9f006a8057002621070077
:100b80006fb99700020078000080fa0000000600ac
:100b9000889fbe008004780040ac80000000e00028
:100ba00005003a000000eb000e0007000084eb0097
:100bb0000000e0000800350048ac80000900e000bb
:100bc0000500320009004400060007000000e000b4
:100bd00001003d000084eb00080078004f04be00d7
:100be00000000600800078000100e00003003a00e9
:100bf0000000200040ac8800000005000080eb00f1
:100c000002002000828f500002003e0041ac8800ac
:100c10000000eb00000006000000050014002000aa
:100c2000ab023700f4ff2f00a90237000001be001d
:100c30001b0007000470a70003f0a10003f8a30045
:100c400013003a006509b1001000320009003500b8
:100c50006928e100020035000100280000000500bd
:100c600000004000818048008502e900fcff3a0056
:100c700000000600f88f4200050035008100d10019
:100c80000080d3008502e800fcff3a000000060067
:100c90008000eb00000005006011b800a7023700db
:100ca000c70ade00f107b200f50fb20008003200fb
:100cb000e1cf4200020032000170a00024000500d4
:100cc000810f700001003200040805004400050097
:100cd000810f700002003a00140005008502e9004f
:100ce0000000400081c04800fcff3b000170a000f4
:100cf000240005006022b800060220000000d00099
:100d00008180d2000482d2008582d2000000a0003f
:100d10000202520083825a000300310002024200a4
:100d200083824a000000a1000603e900f3ff3a00b5
:100d300000000600889fbe008a9fbe008c9fbe00f8
:100d40001b0020000202be00058668000600280085
:100d5000060666004709de00f20fb200820032008c
:100d60000243e80080003200c729de00f30fb20022
:100d70007d0032000343e8007b003200f107b2003f
:100d80000170a000f507b2000570a000c708dd00e3
:100d90004903de00868070004700dd00c72add00c1
:100da0004923de00868272004722dd0003055100e0
:100db0000403500085835800030031000000400008
:100dc000818048000a05e9008c1f78008a9fbe00d8
:100dd00004005000858058000402420085824a00c9
:100de00000004000818048000005eb000004be00c8
:100df0006033b8000406be000d48e1005600310023
:100e0000110009004dccd8000c01b8000d02b8004b
:100e10008481410060824a008283530003045c00a5
:100e200084845c0060055d000a00e00025003a0053
:100e3000800578000d40e10049003100880078000d
:100e400007007800110009004d88d8000c01b80097
:100e50000d02b8008481410060824a0060031100e5
:100e600083835b0004045c00e0845c000900e00014
:100e700021003a004f01be000300e0002b003200c9
:100e8000e3016000070673008c81710001003200ed
:100e9000640070004200de004e5edd000c00700059
:100ea000c258de0001e0a00083010700cf017800f6
:100eb000818071004f06be004f05be004f04be008a
:100ec000000006008c8343000d044c00e0844c00bd
:100ed00060054d000000e9000a00e000d4ff320088
:100ee0008c8343000d044c00e0844c0060054d00f1
:100ef0000000e900ceff37000c0343008d834b0058
:100f000060044c00e0844c000000e9000900e000af
:100f1000d8ff32000c0343008d834b0060044c006b
:100f2000e0844c000000e900d2ff37004200de0000
:100f30004e5edd000c007000c258de0001e0a00033
:100f4000cf0178000300e000daff320060001000fb
:100f5000e0801800d7ff3700f0ff2f00aaff37000e
:100f6000f0ff2f00b9ff37000404be002f01070077
:100f7000870678000004fd008104fd002b010700b6
:100f8000078366000678a300030032000960a7000b
:100f90000800be002c0037000d78a30002003200cc
:100fa0000800be00280037000778a30026003a009a
:100fb00001f0a10009f0a1000668a30003003200bf
:100fc000f1ff2700f0ff2f00baff37000d68a300e4
:100fd000030032000800be008c807000b5ff3700af
:100fe0000768a30007003a000648a3000300320088
:100ff000f1ff2700f0ff2f00aeff37000d48a300e0
:10100000030032006000b8008c807000a9ff370038
:101010000748a3000400320001f827000000200068
:101020008c807000a3ff3700760107000004fd00ec
:101030008104fd0002057800720107000802be006d
:101040008a01780059ff37000160a00012022000d9
:101050009286880097ff37000100e00012003200fe
:101060000500e00010003200889fbe008a9fbe008d
:101070008c9fbe000006eb0001f8a30003003200c5
:1010800060001000e08018000cf0a00005f8a3003c
:101090000300320060021200e0821a000cf0a2008d
:1010a0008005eb0041ff37006000b800020005003a
:1010b000038368000700280007036300470ade0077
:1010c0000480a100c71ade000580a100f70f2000f0
:1010d0000720e100420032000728e1004000320012
:1010e000889fbe008a9fbe008c1f7800f107b20067
:1010f000f307b2000400e000640032000170a000b9
:101100000500e000680032000370a0008505420081
:10111000eb07b1000204b8000302b8008484440065
:1011200060854a00020ab800848444000a854a00a7
:10113000030ab80004054500040033000804d00089
:101140008984d2000a85d2008b05e9006158e1004c
:101150003d00350002102000090161000308200055
:1011600089816100f7072000878364000886730087
:10117000c84cde00c853dd00878474004855de008b
:101180000300e00006003200820376000400320013
:101190008904e80060054d000a88a3000c003a00ad
:1011a000f70f20000758e10044003d000a70a1003d
:1011b000c75ddd000a8575008a00730009007800ac
:1011c0004f0678004f05be004f04be000000060029
:1011d0000a05d1008984d3008b05e800f0ff3700b1
:1011e000881f780006047800900007000702780046
:1011f0000001fd008101fd008c00070087027800de
:10120000850372000778a300050032000001fd008d
:101210008101fd009f0007004f04780000000600d8
:10122000850372000748a30003003200f0ff2f007f
:10123000f1ff2700f8ff37000000200001f8270029
:1012400088807000f4ff3700880178004848dd008e
:10125000808171004848de00c850dd000100700048
:10126000c850de00060478000b0178001600070065
:1012700088807000d2ff37000500e00005003200d2
:10128000170020003a0007009dff3700810370001f
:10129000f9ff3a00860078004f0678004f05be003f
:1012a0004f04be000000050083037100f9ff320007
:1012b000270020002e00070094ff370001f82700c8
:1012c00086807000f4ff37000100e0002600320045
:1012d000610111007810e10023003c006022b80099
:1012e0007010e100040035008002780001007800f1
:1012f0008000eb00700151000200e00009003400a2
:1013000070031100062add00822ade008603dd005c
:10131000878272000200de00860bdd00070070008d
:101320008208de0084817100f4ff270004826200dd
:1013300084817100040028008482620061026000e0
:1013400005f0a600000006000482710007003200cc
:101350000000e800e0804800000006000002be0037
:101360006000b800efff37006000b8000000060022
:10137000889fbe000004eb006138e10016003a00cf
:101380000100e00008003a00c800de004800dd006f
:10139000880020000100e00003003a00c800de00e1
:1013a0004800dd00680444008184cf00e9845400d3
:1013b000060034008908dd00f08314008703de0096
:1013c000878070000900dd000904440061021400f8
:1013d0004f04be00000006000300e00008003a00d1
:1013e000c811de004811dd00880020000300e00085
:1013f00003003a00c811de004811dd006804440013
:101400008384cf00e9845400060034008919dd008c
:10141000f08314008713de00878171000911dd005d
:1014200009044400e1021400e9ff3700270020000e
:1014300001f0a70017002000470bde00f60fb200f6
:10144000040032000643e8000a0032004702b300fd
:101450000000060001037800f607b20006037000e2
:1014600002003a000703b300000006008702b30041
:101470000000060001037800f607b20006037000c2
:10148000020032000770a000000006000760a00004
:10149000000006000478a300040032000578a300d1
:1014a000030032000168a30001003a000200be0000
:1014b0000160a000000006008101700027003200da
:1014c0008002eb0001f8a30003003200600010006e
:1014d000e080180015002000f407200002024200fe
:1014e00020003400f703200087036000060420007a
:1014f0000003630002082000000161004700de00d5
:10150000c909dd0000807100c708de000600e000a8
:101510000800320087037100060032001000b0009e
:101520000180b0000188a30002003200c108de0083
:101530000402e800f107b200f30f20000320e100ed
:1015400003003d004722dd008100720029003700c2
:1015500001f827000000eb00260037006000b8000b
:1015600000000600680212007f20e1000200340043
:101570006000b8001f0037006011b8007020e10063
:101580000400350080017800010078008000eb0045
:10159000700252000400e00009003400f003120061
:1015a0000719dd008419de000703dd008681710064
:1015b0000400de00070bdd00060070008408de007a
:1015c000f7ff27008383630087037100060028006c
:1015d00003036300070032000700e00003003a0045
:1015e0006101600002817300020032001000b0004f
:1015f0000180b0000500a6000000060001f0a00078
:10160000000006004f0ade004709de00f107b200c5
:10161000f20fb2000b003200f207b1000170a0001f
:10162000c708dd00c901de00838070004700dd00cf
:101630000400a6000000060060001000e080180012
:1016400000000600810f700001003a000000060053
:101650008182cf000500e00010003e008082cf00b4
:10166000ee8242007028e1000400390007003e00cd
:10167000800078000000eb000e003700708312003d
:101680008600de000500dd000a003700708352008e
:101690008600dd000000eb0006003700e282520009
:1016a0008508dd00708312000603de00868070006e
:1016b0000500dd007507b0000501ea000400a60082
:1016c0000000060060001000e08018000000060026
:1016d000889fbe008a9fbe00841f78006c000700b0
:1016e0004f00780011003300f0ff2f00838f6c0053
:1016f00006003b00040565000a00a700080037004b
:1017000009f0a6001000200008003700820f5400e6
:10171000838f5c00030039001000200001003e00b0
:101720000000200009f0a7000000ea004f05be00fd
:101730004f04be000000e00000000600889fbe00cd
:101740008a9fbe0000827000040271000482710052
:10175000260032000004be000200be006011b80086
:101760006b092000950220000182cf000a00390099
:101770000541b1000082cf00070039000541b100ea
:101780000982cf00040039000541b1000882cf0072
:10179000010039000541b10005425200120032003b
:1017a0000a003b0082817100610164008100d10068
:1017b0000080d3008984d3000884d3008b05e8001f
:1017c0000442e800f7ff3a0007003700080444002d
:1017d00089844c0000004800818048008b05e900a6
:1017e0000442e900f9ff3a00030007004f05be007c
:1017f0004f04be00000006008100200061805500fb
:101800000b003d000b00200061fe2f000100e100f5
:101810001d00340082817100610164008904d100df
:101820000884d3000000e800faff3a0071002000ad
:1018300061006400030070000200600009003200d3
:1018400061044400e0844c000988a50005003200d2
:101850008b05e8006808e10002003a008904d10025
:101860000884d300f20f20000258e10005003d007b
:10187000c75ddd00f907b2008980750008007800b7
:10188000000006000bf827008b0078000000050020
:101890000004be0002fd07000003be000405be00f8
:1018a0000200be00fefc0700844f75000000060029
:1018b0000000fa00e88157004fb997000b070700b6
:1018c0000080fa000000060048020700a40207009a
:1018d00076050700ae0507002a0607005406070034
:1018e0003a070700b30707005a0737000000fa005d
:1018f00068815700cfb89700210707000080fa00e1
:10190000000006003902070068050700a00507006f
:101910001c06070046060700a60707004d0737000c
:101920000000fa0068815700cfb89700140707003d
:101930000080fa00000006002c0207005b0507008b
:10194000100607003a0607009105070099070700ef
:10195000400737000000fa0068815700cfb89700b1
:10196000070707000080fa0000000600880537001e
:101970000000fa0068815700cfb8970005070700fc
:101980000080fa0000000600080a37008001780095
:1019900002003700b15978000201e9000200e000be
:1019a000fcff3a0000000600810178000002780088
:1019b00030417800b14f510002003a000204e000cb
:1019c000f9ff3a009480fb001380fb000080500078
:1019d00000000600881f78000004780008007800e6
:1019e000ce190700080078004f04780000000600b8
:1019f0008001eb000200e0001000320000027800dd
:101a000001037800b44178000304e00008003200cc
:101a1000b14278000504e000050032008203400076
:101a2000848f53000200320085cf5100f4ff320052
:101a30008381fb001680fb00808151000300780049
:101a400000000600114290000482fb009180fb0020
:101a5000c808dd000482700080007800d181fb009e
:101a60001081fb004811dd00030171000300370005
:101a70004811dd001180fb000201700001007800b8
:101a80003104e00004003200840f5100f8ff3a00f6
:101a90000000e9000000060000000500114390006e
:101aa0008683fb00060020001181fb008001eb0013
:101ab000c811dd000200200002037300838373005d
:101ac000214190004811dd008001eb00020373000a
:101ad000838373008080e800104190008281fb00c6
:101ae000020020001082fb008002eb00c822dd0013
:101af0000400200004017100858171001182fb0047
:101b00004822dd008002eb00040171008581710034
:101b1000080037001182fb008002eb000402710014
:101b2000858271004829dd00c821de008301710033
:101b30004821dd00010078003104e000050032009a
:101b4000860f5100878f5900f2ff3a000080e900ac
:101b50000000060000000500314190000281fb00fa
:101b60008001eb001183fb008003eb00c833dd0034
:101b70000600200006037100878371001141900068
:101b80008281fb0002002000020373008383730044
:101b9000214190004811dd008001eb000203730039
:101ba00083837300e30040001182fb008002eb009e
:101bb0001081fb008001eb00c811dd000200200055
:101bc0000201720083817200104290008482fb0047
:101bd0000400200004017100858171002042900002
:101be0004822dd008002eb0006003700481add00c5
:101bf000c812de00850272004812dd001181fb0070
:101c00008001eb0002017200838172000100780004
:101c10003104e00005003200860f5100878f590023
:101c2000f2ff3a00630050000000060000000500cb
:101c30002802fa00889fbe008a9fbe008c9fbe00cb
:101c400000047800810578000f000900001feb00f8
:101c50000e02b1000b017800880078008004eb00d0
:101c60000d0037000080fb00c401de0083814100cd
:101c70006f02600015002000042add00ee8279006a
:101c80000482720004b779008904e8000000400073
:101c90000002b00009377800324078000004e0000c
:101ca00005003a001a0020000a0078000001eb004d
:101cb0008081eb001b0037003104e000e9ff3a00af
:101cc000a8003700038245000002420094427800d9
:101cd000018245001442780084cf520005003a008a
:101ce0008a0f50000c0032000000e80082007800eb
:101cf0000b00370084cf52000200360003855000ed
:101d0000060037008200e800820178001a002000f7
:101d10000a0078000200370000057800100020005b
:101d20000101780082004000898f5000e5ff3900f2
:101d300011002000010078000002eb008086eb001b
:101d4000180037008d8245008082420015437800dc
:101d50008282450095427800854f530005003a0085
:101d6000810f50000c0032000000e80004017800f0
:101d70000b003700854f5300020031008d005100e9
:101d8000060037000401e8008406780011002000f6
:101d90000100780002003700800078001000200069
:101da0000202780004014000890f5100e5ff39006c
:101db0000d01e8000300e800800f5100020036002a
:101dc0000105780001003700830678000d02e80065
:101dd0008a804500040178000b00780034179a00cf
:101de0009f1707003e1292000000e000080032003a
:101df0000905e9000d0555008d0f55000100310062
:101e00000d0578000a05e8008002eb0001003700ac
:101e10008a825400880178000006eb000880510097
:101e2000890f50001600310009037800f603b30053
:101e3000060178008000eb000300780003179a0089
:101e400034179a0015179a0026179a00551707009d
:101e50008e1192003e1292009e1292002e1392005a
:101e60000000e0000500320088005000898f50001b
:101e70003c00390080017800010037008681410074
:101e80008900440071f897000080fb006f0160003a
:101e900017002000823bdd004401de00020141000a
:101ea0006e037900068163000d00320000004000df
:101eb0000002b0006e007800008054000a0032007a
:101ec0000500e000160032000c00e00014003200b3
:101ed0008a0f5000120031000a80540010003700b1
:101ee00001047800ccff37000c007800840f560006
:101ef0000300310004007800010037000000e80012
:101f000080804500914078000104e0000600320026
:101f10000001440092cf5000f8ff32000d00500045
:101f200000044400bcff37000d0078008000e8008a
:101f30008c8f50000900360000814500800044006d
:101f40000000e90012417800914f5100f7ff320084
:101f50000a04440005067800b0ff37000800780046
:101f6000010037000000eb004f06be004f05be0029
:101f70004f04be000080fa0000000600881f7800b1
:101f800001047800984078000104e0002600320047
:101f90008100fb00811807000000e00022003200f1
:101fa000984090000104e0001f0032009040900033
:101fb0000104e0001b003200a84090000104e00092
:101fc00003003a00880078009efe070016003700e4
:101fd000a04090000104e00012003200b8409000e0
:101fe0000104e00003003a0088007800abfe07001f
:101ff0000d003700b04090000104e00009003200fd
:10200000c84090000104e00003003a008800780016
:10201000d1fe0700040037008800780004ff0700a5
:10202000010037000000eb004f04780000000600bc
:102030003c00fa00889fbe008a9fbe000004be00dc
:10204000020578000f0078004004b1001d0009006f
:102050000018eb0088a79f00d8af9f000080eb001e
:10206000e0af9f006022b8006033b800c0fb2f00d3
:102070000f0040006c170700120020008a00780053
:10208000c0fb2f000f0040007e1307006fb29700c7
:10209000ffb297000fbb97009fbb9700dfad970083
:1020a0000fa597000900e000090032000a855500dd
:1020b000cfd5de000402450085824d0006834d0029
:1020c00087834d000100320004044400880c78002e
:1020d0004f05be004f04be000080fa00000006005d
:1020e0000001eb00d2ff07003e1c37001200200069
:1020f000cfff07003b1c370022002000ccff370039
:102100004400fa00889fbe008a1f78000004be00c9
:102110000205780094bf9f00a5bf9f00b6bf9f0037
:10212000c7bf9f000000eb00c09f9f00a8af9f00ab
:10213000d89f9f000080eb00b0af9f006022b800e6
:102140006033b80060fb2f000f0040003617070017
:102150001fba9700afba97003fbb9700cfbb97005d
:10216000120020008a00780060fb2f000f00400062
:10217000641407000900e000060032003fb2970037
:10218000afaa970004824200df9a9700050252002e
:10219000840c44004f0578004f04be000080fa0014
:1021a00000000600f4ff2f00f5ff2f000403be001f
:1021b000d3ff37006022b800060020000700280087
:1021c000cfff3700f4ff2f00f5ff2f006033b8007a
:1021d000cbff370004002000050028006033b80062
:1021e000c7ff3700f3ff3700eeff3700ec874700eb
:1021f000889fbe008a9fbe008c9fbe008e1f780005
:102200000006780001047800180790002805900067
:1022100098067800cdb79f00b805900012027800ac
:102220009202900022039000b20390000400be00ce
:102230000601be004f18de006011b8008000eb0000
:10224000d0b79f00e1b79f00f2b79f0083bf9f0008
:10225000800478000900e000060032006000b80049
:102260006011b8000402500085825800060359002e
:10227000878359000e00e000020035000d10a10018
:10228000cdb79f000900e00005003a004fb097006d
:102290000028a30002003a000038a3000200320028
:1022a0008a00e900010037008a007800f8815700b1
:1022b000a2002000080078005f0307000900e0008a
:1022c00003003a00cfb097000128a30008003200b5
:1022d0000000e90000814500b1c2b3000900e00040
:1022e00001003200d1c2b300014978000600370076
:1022f0000138a300040032000000e900808045009e
:1023000002c2b30082487800480190000201e9004f
:1023100000015100808045004fb297008a0178008b
:102320000c0078006e0507009c0090000188a30057
:102330000400320098009000810f500001003d0021
:10234000010078004f0778004f06be004f05be0021
:102350004f04be00cf00b1000000060000000600e0
:102360002f04b000889fbe008a9fbe008c9fbe00d5
:102370008e1f7800b09f9f00a1a79f00a37f9f00a2
:1023800011007800d0a79f0091009000f1a79f0056
:10239000afa19700a3019000c3a79f002fa29700b1
:1023a00044029000a49f9f00afa2970035079000c1
:1023b000120478009204900022059000b20590006b
:1023c0006022b8006033b8000800be000a01be00f9
:1023d000131b07000000e00003003d000bf0a2000b
:1023e000d0c2b300040037005fa397000628a30003
:1023f00008003200b0c2b300004f7800cfa39700ae
:102400008703e90087af9f0010002000e0a79f002e
:102410000f003700dfa097000138a300080032004a
:1024200000c2b300004f78004fa197000201e900fd
:1024300082af9f0013002000e3a79f000400370035
:102440004fa2970084af9f008002eb00e5a79f009a
:102450000800be000a01be00c0ff0700f4ff2f0005
:10246000f5ff2f00f6ff2f00f7ff270004026000a2
:102470008582600006036100878361006000b80008
:102480000200200003ff27000020e10001a8e10076
:1024900002b0e10003b8e10010003a002f7b970082
:1024a0008600fb001104b100efa39700070047006e
:1024b000f98f500002003e00215621000100370034
:1024c0006156210043fd0700605621006817070090
:1024d000efa0970001014000140037000020e10048
:1024e00001a8e10002b0e10003b8e10012003600eb
:1024f0002f7997008200fb001104b100efa1970033
:1025000003004700f98f500002003e00a156210051
:1025100001003700e15621002efd0700e0562100a2
:10252000531707006fa29700040140005fa29700b5
:10253000cfa19700490237006022b8006033b8008d
:102540000800be000a01be00b51a07000000e00046
:10255000680032006000b8000200200003ff230082
:10256000d0af9f00e1af9f00f2af9f0083b79f0005
:102570008006eb000802be000a03be0094b79f006d
:10258000a5b79f00b6b79f00c7b79f0007003700e9
:102590008d06e8000800be000a01be00d0af9f0013
:1025a000e1af9f00f2af9f0083b79f006022b800a9
:1025b00006002000470224005fa89700efa89700bc
:1025c0007fa997008fb197003a1c07000004be0056
:1025d0000205be000002be000203be001fb097004d
:1025e000afb097003fb19700cfb197008c1a0700aa
:1025f0000000e000e6ff3d000006eb005fac970046
:10260000efac97007fad97008fb59700250037009e
:1026100040ed2f00808f560019003d000c00e000b7
:1026200016003a006022b80006002000073524009a
:102630001fb09700afb097003fb19700cfb19700a0
:102640001c1c07000002be000203be0094b79f00de
:10265000a5b79f00b6b79f00c7b79f006022b8001c
:1026600006002000073524000800be000a01be0055
:10267000101c07000004be000205be001c00200064
:102680006022b80006002000470224000800be00b7
:102690000a01be00581b07000004be000205be0070
:1026a0008d06e9000802be000a03be001fb09700b5
:1026b000afb097003fb19700cfb19700581a07000d
:1026c0000000e000d2ff35000800be000a01be0095
:1026d000d0af9f00e1af9f00f2af9f0083b79f0094
:1026e0001fb49700afb497003fb59700cfb59700e0
:1026f000080037006022b8000600200007ff230012
:10270000d4af9f00e5af9f00f6af9f0087b79f0053
:102710008006eb00af7a97000500fb00ec1607007f
:10272000b07f9f007fa39700600020000600e000bc
:10273000010035007fa0970071c6b300bf7b9700f2
:1027400081cf53000a003a00ffa097000100e0008b
:10275000cb013200cb0137008d0f5000cf013c0080
:1027600090b79f0052c6b300e2cf9f001e00370013
:10277000bf799700e3cf9f000200370064c6b30023
:10278000e4cf9f000000e80090b79f0060c6b30050
:10279000efca970080cf520013003a000d00e0000e
:1027a00008003d006000b8000200200003ff230085
:1027b000d0af9f00e1af9f00f2af9f0083b79f00b3
:1027c0008006eb0061c6b300e1cf9f0070c6b30086
:1027d0003f799700804f5100030032009fb197006e
:1027e0008d81410093b79f005faa9700efaa9700e1
:1027f0007fab97008fb39700d4b79f00e5b79f00da
:10280000f6b79f0087bf9f000800be000a01be0008
:1028100090af9f00a1af9f00b2af9f00c3af9f00da
:102820000006eb000802be000a03be00e49f9f0002
:10283000f59f9f0086a79f0097a79f003100370054
:102840005fb29700efb297007fb397008fbb9700fe
:102850001fa89700afa897003fa99700cfa997009e
:10286000e51a0700291f07000004be000205be008c
:10287000281a070080027800b5a79f005fb2970072
:10288000efb297007fb397008fbb97000800be00a0
:102890000a01be00871b07001faa9700afaa970076
:1028a0003fab9700cfab9700821a07000002be0033
:1028b0000203be0007f0a20094af9f00a5af9f00e7
:1028c000b6af9f00c7af9f006022b800060020008f
:1028d000470224005fb09700efb097007fb19700e8
:1028e0008fb99700c41a07000002be000203be00a1
:1028f000d4b79f00e5b79f00f6b79f0087bf9f0042
:102900000c06e8009fb29700850f5600ccff3500fb
:102910006f9c9700ff9c97000fa597009fa59700bd
:102920006022b80006002000470124005fb0970035
:10293000efb097007fb197008fb997005d1b07003c
:102940000002be000203be00d4b79f00e5b79f009f
:10295000f6b79f0087bf9f001fa89700afa89700fa
:102960003fa99700cfa99700ad1907000000e0002c
:102970000f0035005fb29700efb297007fb397006a
:102980008fbb97001fa89700afa897003fa997009b
:10299000cfa99700a21907000000e00011003a003b
:1029a000bfa297000508a300080032000d00370001
:1029b0006000b8006011b800d0b79f00e1b79f0079
:1029c000f2b79f0083bf9f00060037006022b80067
:1029d0006033b800d4b79f00e5b79f00f6b79f00fb
:1029e00087bf9f005fb29700efb297007fb3970059
:1029f0008fbb97000800be000a01be00331a070013
:102a00000002be000203be0094af9f00a5af9f006e
:102a1000b6af9f00c7af9f006022b800060020003d
:102a2000470224005fa89700efa897007fa99700ae
:102a30008fb197001f1b07000004be000205be00f7
:102a40000002be000203be001fa89700afa89700b7
:102a50003fa99700cfa99700761907000000e00072
:102a6000090035008d06e80060c6b300efca970084
:102a700080cf520008003a001fb397000603e80019
:102a800096b79f00110037005fac9700efac97003e
:102a90007fad97008fb5970050c6b3006fc9970000
:102aa000804f510009003a000802be000a03be0030
:102ab000d4b79f00e5b79f00f6b79f0087bf9f0080
:102ac0008002eb00d5af9f00070037000800be0072
:102ad0000a01be00d0b79f00e1b79f00f2b79f0088
:102ae00083bf9f00ddaf9f006fa697000001eb0042
:102af000b2a79f00c29f9f00e29f9f009d9f9f00e3
:102b0000680037005fb29700efb297007fb397007d
:102b10008fbb97001fa89700afa897003fa9970009
:102b2000cfa99700341a0700781e07000004be00e2
:102b30000205be0077190700e90f500001003400bc
:102b400090002000dfa197000348a3000c003a008a
:102b50000000e0000a003a0071c6b3003f7a970017
:102b6000814f520006003a00dfaa97000500e000fe
:102b700003003d003fa397008606e80021003700d0
:102b8000cf9b97000700e0000c003a00dfa89700f9
:102b90000100e00009003d000c014700e1c2b30064
:102ba000014978000c06e8000fa997000201e9002e
:102bb00082af9f0013002000c39f9f000c014700bd
:102bc000bfa697000300370001c3b3000159780086
:102bd0008d06e9000d00e000fbff3a003fa29700e0
:102be000040646008c00470005c3b300854840003a
:102bf0000c06e8000480ea000fab970000034300d6
:102c000086af9f005fb29700efb297007fb3970047
:102c10008fbb97000800be000a01be00a51a07007e
:102c20001faa9700afaa97003fab9700cfab9700c2
:102c3000a01907000002be000203be0007f0a200b8
:102c400094af9f00a5af9f00b6af9f00c7af9f0096
:102c50006022b80006002000470224005fb0970001
:102c6000efb097007fb197008fb99700e219070086
:102c70000002be000203be00d4b79f00e5b79f006c
:102c8000f6b79f0087bf9f00dfaa97008502e90083
:102c9000d5af9f006f9b97000603e800e69f9f005b
:102ca000bda79f00ef9b97001fb09700808f530038
:102cb00005003d00afa09700410090006500500066
:102cc000800f56008fff39009f9e97004f99970005
:102cd0000200e00007003a00dfa197000348a300cc
:102ce000040032000c004700e1c2b3000148780044
:102cf0000c06e8000c0047000048eb0051c6b3008a
:102d00006fca9700814f520036003a00af9a970081
:102d10008500e900010147000049eb008001eb005c
:102d20000d00e00002003d008d06ea0013002000c7
:102d300022002000810378008faa97000004780009
:102d40000b0037008103780007034700a400200030
:102d5000110009008406d80001027800800678007e
:102d600000c3b300004b42000201e9008502e90004
:102d70008700e9000d00e000f2ff3a000200e000e9
:102d8000f0ff3c0085af9f0008007800010247007b
:102d9000b2c2b3000300e00001003200d2c2b300af
:102da000024a78000101e90082004700af799700ec
:102db0000302fb001404b10053c6b300f90f520024
:102dc00001003e0053c4b300834878000faa970067
:102dd0000482e90084af9f00820f560001003d008d
:102de000fcfa0700dfa2970063806200e20f500048
:102df00015003a000fab97000600e0001200340007
:102e00000e0078001a150700060037008fab9700f8
:102e1000870047008080400000014700924878000a
:102e20000000e900efa09700810f5000f7ff3d0080
:102e3000010047000fa99700010320009613070027
:102e40000001eb00c2a79f000e00780008150700e4
:102e50005fa29700cfa19700000178008e00780054
:102e60003f9897009e0207004f0778004f06be006c
:102e70004f05be004f04be002f04b1000000060045
:102e800010002000e48f460033fe3d0090b79f0005
:102e900053c6b300e3cf9f0053fe37000d00e000a0
:102ea00036fe350090b79f0046fe37000200fa005c
:102eb000889fbe008a9fbe008005780001047800cc
:102ec0000200780018019000280590009800780012
:102ed000b1bf9f00b80490000200e000020035007e
:102ee0000110a100b1bf9f00ea81570082002000bd
:102ef0008a00780010027800900290002003900071
:102f0000b0039000080078004b0007003fb997001d
:102f1000f0006100040032000000e90080804400fd
:102f200002c3b300824878003fb99700e80061000f
:102f3000040032000000e9008080440002c2b300b7
:102f400082487800480190000201e9000001510028
:102f5000808044003fba97008a0178000b00780017
:102f60005f0207009b0090000188a300040032006c
:102f700098009000810f500001003d000100780092
:102f80004f05be004f04be000080fa00000006009e
:102f9000ea874700889fbe008a9fbe008e1f780088
:102fa00000047800030078007287570084e226004e
:102fb00055c72600049fbe00c3962200030f780069
:102fc0006c875700004feb0011059000a1049000a2
:102fd000910578000200e00002003200020778004c
:102fe00001003700728757000000e00002003a003d
:102ff0000e0078009e1407000a00e0000300350070
:103000008a0f5000010036000a0078000b02780099
:1030100089017800000178008e00780008007800af
:103020002f0207004f0778004f05be004f04be0077
:10303000af00b10000000600f4874700889fbe0083
:103040008a9fbe008c9fbe008e1f78000605be00c2
:103050000404be0081bf9f0082b79f00f3b79f00aa
:10306000b0009000e1b79f001301780092b79f0075
:1030700090069000400090000000e90000067800f3
:103080000d00e00001003d001d002000efb19700a1
:10309000008041000048eb001e0020001f003700a8
:1030a0000c06e9000fb09700cf80de006109b9007f
:1030b000a0b79f00b1b79f00c2b79f00d3b79f00d2
:1030c0000203be000002be000800be000a01be00ee
:1030d0003b1b070000077800efb097000c80400012
:1030e00003c3b300034847008d06e9000fb89700fb
:1030f0000000e90080bf9f002fb29700bfb2970089
:103100004fb39700dfb397000800be000a01be006e
:10311000241b07000205be000004be000c00e000f6
:103120000d003400e00f5400e08f5c00e00f5d0004
:10313000e08f5d00daff3a000d00e000d8ff3c00b0
:103140008fb897000100e000030034001fb1970022
:103150000218a300d2ff3a000e00e00002003a007d
:10316000ffb197001340a1000c0078004f077800d2
:103170004f06be004f05be004f04be004f01b10018
:10318000000006000200fa00889fbe008a9fbe0071
:103190000005780001047800020078001801900012
:1031a000a804900098007800b1bf9f00b805900077
:1031b0000200e000020035000110a100b1bf9f0035
:1031c000ea815700a20020008900780010027800f0
:1031d0009002900020039000b00390000800780057
:1031e00095ff0700480190000201e900000151002d
:1031f000808045003fba9700890178000a00780076
:10320000b70107009a0090000188a3000400320073
:1032100098009000810f500001003d0001007800ef
:103220004f05be004f04be000080fa0000000600fb
:10323000fa874700889fbe008a9fbe008c9fbe0011
:103240008e1f7800800478000104780082057800e1
:10325000180190002805900018077800b800900029
:103260000200e000020035000e10a100010037004e
:103270001200200070006700e0b79f000b003200d2
:103280001b0278009b0290002b039000bb03900070
:10329000e00f5200e08f5a00e00f5b00e08f5b0010
:1032a000020032008a86e900010037008a067800b1
:1032b000e8026700f5b79f00010032008d06e900c3
:1032c0001b0278009b0290002b039000bb03900030
:1032d000e4af9f00f5af9f0086b79f0097b79f00b0
:1032e000480690000c06e9000c8040000048eb0006
:1032f000efb297007fb297008903780081047800cd
:10330000d8af9f00020478008bbf9f008a05780029
:10331000034578002b0037000c06e9006fab9700df
:103320006f006300e90f500002003c000003b00092
:10333000010037007005b0000a03fb001604b1005d
:10334000f90f53000c003e00000378000650a00067
:103350001606b100f90f530007003e00b4b79f00f6
:10336000a5b79f00c7b79f00e0130700cfb3970032
:10337000afb297003fb297000c834400004b780037
:103380000804e9008d06e9006fa89700ffa89700e0
:103390000fb197009fb19700460020008301d10034
:1033a0000281d3008180d3000080d3000603e900ae
:1033b000faff3a00e0af9f00f1af9f0082b79f0095
:1033c00093b79f00e10f56000f0034006fa89700dd
:1033d000ffa897000fb197009fb19700e00f500032
:1033e000e08f5800e00f5900e08f5900caff3a0003
:1033f0000800e000c8ff3c000d00e00002003400bf
:103400000e18a300c4ff3a0089007800f4b79f00ab
:10341000870478005fac97008a4178000b0578003c
:103420008fbd97000500e000140032001b027800f9
:103430009b0290002b039000bb039000e4af9f0021
:10344000f5af9f0086b79f0097b79f00e00f52002f
:10345000e08f5a00e00f5b00e08f5b000700320056
:103460000c06e9000c804000034878000c06e900d7
:103470000c80400002c3b30002487800ffb29700fe
:103480000500e000040032000c06e9000c8040005a
:1034900002c2b30002487800480190000201e9002e
:1034a0000c0151008c8040000e0278008a017800e7
:1034b000090078000a010700990090000188a30024
:1034c0000400320098009000810f500001003d0080
:1034d000010078004f0778004f06be004f05be0080
:1034e0004f04be00af01b10000000600f2874700a4
:1034f0008e1f780002027800030178000000e000cf
:103500000200320000077800010037007287570080
:103510008002eb000100e000010032008102e900be
:1035200070805700060009000018eb000080eb00d7
:1035300080bf9f002310200093bf9f00aebf9f005d
:10354000b1bf9f00c5bf9f000100e00003003d0028
:10355000b104200011ac880006003700004feb00da
:10356000eebf9f00debf9f00840078007080570090
:10357000651307004f0778002f01b1000000060017
:103580008201780001017800f1ff2700d7ff3700a2
:10359000fb0537003c00fa008f017800c303b1003f
:1035a0001d0009008019eb00c0a79f0080b79f0095
:1035b00080ac2100b0b79f0040fc2f000f004000fe
:1035c0005f1307000080fa0000000600881f7800e3
:1035d0000004780000082000808f50001a00350099
:1035e00010082000808f50000d00340030082000ab
:1035f000808f500014003a009200780068805000dc
:1036000000097800100278009002900020039000da
:10361000b0039000049cbe000694be000800370072
:1036200092027800648052000009780090009000b7
:103630001000780098160700009cbe000294be009f
:1036400010002000010037000000eb004f0478005c
:103650000000060084082000848f50001d00320006
:103660000d003c0014082000848f50002700320019
:1036700002003c0004082000040037002408200059
:10368000848f50003600320044082000848f5000a0
:1036900047003a003a003700040a2000848f5000a7
:1036a0002900320004003c0004092000848f5000ef
:1036b0003f003a002a003700020c2000828f5000a1
:1036c00033003200020f2000828f500038003a0091
:1036d0002f0037009380e9000200e000050032006f
:1036e000810978001102fb00cfa2de00612bb90036
:1036f0002c00370081097800114278000482fb0019
:103700008002eb006033b800260037001302780017
:10371000e40052000200e000060032008109780057
:1037200011027800910290004fabde008603780012
:103730001c00370081097800110278009102900086
:103740006033b800170037009380e90081097800e2
:1037500011027800cfa2de00612bb9001100370002
:1037600093027800e8805200810978001102780005
:103770009102900021039000b103900009003700ee
:103780009380e9000200e00002003200efff370002
:103790009380e90081097800110278008002eb0033
:1037a0006033b8000498be000690be00100005000b
:1037b0000000050044082000848f500025003200de
:1037c00008003c0014082000848f500014003200d0
:1037d00024082000848f50002400320004082000b8
:1037e0000c00370004092000848f50001f003200b5
:1037f00004003c0084082000848f500024003a001c
:103800000e003700040a2000848f5000110032009f
:10381000040c2000848f50001d003a000d0037007a
:103820009380e90081097800910078000108780010
:10383000cf91de008288be00140037009380e9003b
:1038400081097800910078000108780082487800aa
:103850000e0037009380e90081097800910078001c
:103860000108780082087800080037009380e9009a
:103870008109780091007800010878006112b90090
:10388000612bb9008498be008690be001000050030
:1038900000000500889fbe000004780048009000ea
:1038a00082047800808f5400010036008004780084
:1038b000090178005800900034f807005800900083
:1038c0000900400050049800c8009000898450000e
:1038d000490498000048eb004f04be0000000600b9
:1038e000f2874700889fbe008a9fbe008c9fbe0063
:1038f0008e1f7800800478000105780002047800ab
:10390000830578006107620002003a008b0f5400c3
:1039100008003900080178008a0078000900780062
:10392000621307008b0f54000200390088057800ed
:103930001e003700088655000c017800f00f560075
:103940000100360002012000010220007e805700a5
:10395000d11007008c067800050037000201200016
:10396000fe8057000900780050130700f0865600cb
:10397000ef8f5600f9ff3e004461de0000ff2f008c
:103980008091b9000c014100fe80570009007800c9
:10399000461307000e00e00004003a00080178001a
:1039a0008a00780009007800401307000b007800b7
:1039b0004f0778004f06be004f05be004f04be0003
:1039c0002f01b10000000600000005000000050006
:1039d00000000500000178000040eb008080fb0043
:1039e00081804000c354210081814100134278004e
:1039f0000404e00004003a00d0542100810040009b
:103a0000114078000000060092017800934f5200a8
:103a100005003a00d0542100810040001140780098
:103a20000309e800010037000040e800ea4f5000b9
:103a3000eaff360000000600f6874700889fbe00b8
:103a40008a9fbe008c9fbe008e1f78000005780004
:103a50000104780083057800040678000000eb007c
:103a6000c0b79f008080eb00d1b79f00e0b79f00f8
:103a7000f2b79f000008200080bf9f0098007800e8
:103a8000010078008004eb00010037008904e800a1
:103a9000304178000204e0000300320053c2b3005a
:103aa000834f5100f9ff3a000900e00004003200a2
:103ab000090178000a007800fc120700188c440005
:103ac0001807780050c2b3009e4f10003f013a0023
:103ad0000e07e8000e0c780010003700cfb09700fa
:103ae0000100a0000b003700cfb097000110a0002c
:103af00008003700cfb097000120a0000500370074
:103b0000cfb097000130a00002003700cfb097007f
:103b10000140a000c1b79f00000ce8001800780029
:103b200090407800b2c2b30082cf5000f1ff320063
:103b300007003c0002c2b30082cf5000f0ff320009
:103b400032c2b30082cf500007003a00efff3700c7
:103b5000d2c2b30082cf5000e0ff320002c3b300f4
:103b600082cf5000e0ff3200a2c2b30082cf5000eb
:103b70000d003a00000ce8001c80e900000e7800ff
:103b800010007800e0b79f000000e0000f003d004b
:103b9000cfb097000100a200c1b79f000000ea006b
:103ba000e0b79f0009003700a1040700e0b79f00bd
:103bb00001003700000ce800180078009000fb00be
:103bc0000103b100e98f5000faff36004fb09700b3
:103bd0000008a300020032000010a100c0b79f003f
:103be00018007800e1c2b30090cf100016003a0030
:103bf0008000eb00d1b79f000000e800000c7800c7
:103c0000a1c2b30090cf100006003a00000ce800fb
:103c10001c80e900000e780010007800d0b79f00eb
:103c20000900370082040700d0b79f000100370069
:103c3000000ce800180078009000fb000103b100c0
:103c4000e98f5000faff36000800780061ff070096
:103c500080467800180078001000fb009c110700d7
:103c600091062000810f50003800320012003c0005
:103c700041062000810f5000340032000a003c0051
:103c800011062000810f5000200032003106200074
:103c9000810f5000a000320051022000810f50001f
:103ca000bc003a00b400370071062000810f5000bc
:103cb000b8003c008800370001072000810f500049
:103cc0005c00320007003c00e1062000810f50003c
:103cd0007a003200f1062000810f5000ad003a005a
:103ce0003900370051072000810f500027003200b3
:103cf00081072000810f5000420032003107200070
:103d0000810f5000a3003a008f0037008d80fb0028
:103d10000c01780000fe2f000f0040002bfe070072
:103d20000000e000a800320018007800000ce80055
:103d30009041780002fe2f000f014100f8805700eb
:103d40000a00780021ff07000e0037008d80fb007d
:103d50008c0178001200200000fe2f000f004000b0
:103d60003cfe07000000e00097003200180ce8005d
:103d700002fe2f000f014100f88057000a00780072
:103d80001af9070080844400900037008d80fb0002
:103d90008c0178000001eb0000fe2f000f004000b6
:103da0002cfe07000000e00087003200180ce8003d
:103db00002fe2f000f014100f88057000a00780032
:103dc000f0fc0700efff37008d80fb008c017800ce
:103dd0000001eb0000fe2f000f0040001dfe070059
:103de0000000e00078003200180ce80002fe2f000e
:103df0000f014100f88057000a0078002bfc0700f3
:103e0000e0ff37008d80fb008c0178000001eb00a3
:103e100000fe2f000f0040000efe07000000e00033
:103e20006900320018007800000ce800904178002a
:103e30001c0037008c0178000001eb00010f20000e
:103e400000fe2f000f00400002fe07000000e0000f
:103e50005d003200180ce8000fb097009fb097008b
:103e60002fb19700bfb19700e00f5000e08f5800ce
:103e7000e00f5900e08f590009003a00cfb59700d4
:103e80006fb4970040542100f91007000b0278002e
:103e90008801780000017800415421004700370074
:103ea00083c7b30002fe2f000f014100f8805700c6
:103eb0000a007800defc0700b2ff37000b814400e7
:103ec0008d80fb008c01780000fe2f000f00400069
:103ed00038fe07003c0037008d80fb000c017800a5
:103ee00000fe2f000f004000b8fd07000000e000ba
:103ef0003500320018007800000ce800904178008e
:103f000002fe2f000f014100f88057000a007800e0
:103f100013f907009bff370000c8b30080cf56009d
:103f200029003a00180ce8001c80e900000e780017
:103f300010407800e0df9f0013002000e2fd2f001a
:103f40000f0141000800370000c8b30080cf5600c1
:103f50001d003a00180ce8001c80e900000e7800f3
:103f60008001eb0010017800f88057000a0078000b
:103f700007fc070083ff370000c8b30080cf56005e
:103f800011003a00180ce8004fb29700efb197000b
:103f9000080037000e0c78000000eb00c0b79f004f
:103fa000e0b79f000080eb00d0b79f000002eb005d
:103fb0008401780012002000a15421000a0078003a
:103fc00047fe07006fff3700180ce8000900780073
:103fd0004f0778004f06be004f05be004f04be00dd
:103fe0006f01b100000006008200fa00889fbe0049
:103ff0008a1f78000005780082047800c13f9f0086
:104000000004eb00100037000902780088017800f6
:10401000a2f72f000f01410081f72f008f80400091
:104020000a00780084fe070008004000880f500056
:1040300004003d00b004200010ac88000084eb00b8
:1040400004003700000478004f3897001004e000a7
:10405000edff3a00080078004f0578004f04be00dd
:104060000080fa00000006000600fa00889fbe00eb
:104070008a9fbe008c9fbe000004be0082057800af
:1040800020572100000f780060572100100798008a
:104090000b80e8000005eb00830f50003d003d0061
:1040a0000b0678008a0678008080eb007808900084
:1040b00038119000820f5000030031003085fb0062
:1040c000700c98000700370008007800210798005e
:1040d0007a0f070000057800ae009000e10f450060
:1040e0002c003200e18f40000a003a000a007800fc
:1040f000771007000005780090062000800f55001b
:104100000f003200e0062000800f55000e00320044
:104110001c0037000a007800210798006c10070087
:10412000ae009000018140006e0179000d01410058
:104130001201fb00820f5000040032001100370012
:104140008000eb0001003700110020000c804400cb
:104150000a4878000c06e8008d06e800e38f560058
:10416000d2ff3a000d0578000a00370038109000a1
:104170000000e00003003200780890000000e90031
:10418000700c98000c06e9008b0f5600f7ff3d00fd
:104190000005eb000a0078004f06be004f05be0088
:1041a0004f04be000080fa0000000600f2874700be
:1041b000889fbe008a9fbe008c9fbe008e1f780025
:1041c00000047800a1b79f008304780022059000c6
:1041d00042069000b2059000990678000800780029
:1041e000c30007008d0c40000c06e9000a00e00047
:1041f00001003a000c057800eab79f000a00780039
:104200008c0f500001003400ecb79f000b077800c2
:1042100011002000c1b79f008006eb00ddb79f00b2
:104220000d057800bdb79f008bbf9f008805780003
:104230000d047800840037007b089000bb109000cc
:10424000810f5000030031003086fb00f00d980014
:104250000a0037000b007800180f070000067800ee
:10426000e10f460005003a008fbd97007fb297002e
:104270000400e0007b003c00880037000a00e000fa
:104280000e003a00b0022000800f560003003200fa
:10429000d0022000800f560008003a000d00e00018
:1042a00002003200888f56000c003a000c4f780054
:1042b000990ce8001a0020005e0037003fb097001c
:1042c0000000e00013003a00e0022000800f5600da
:1042d00010003a000800e000090032000b047800ea
:1042e0008fbd9700381090000000e0005d003200a4
:1042f000780890000000e900700c98005900370021
:104300000c4f7800990ce80011002000b1b79f0015
:10431000480037000800e00023003a005fb2970031
:104320000400e000040032000c007800e80f0700f1
:104330000087b200030037000c007800e40f07008c
:104340005086b20000f0a7000000ea000000e9007b
:104350004f00de000004e000570032004fb4970029
:104360000c4f7800990ce8000005eb003100370095
:104370000c007800d60f070081072000810f500045
:1043800009003a00fef8970000c3b30080cf500048
:1043900005003a000c4f7800990ce800100020004e
:1043a000d0b79f0023003700dfb097000100e00086
:1043b000050032000c007800ed0d07000000e00061
:1043c0001a003a000400370000fd2f000c004000e6
:1043d000e90f5000150036000b0478008fbd9700e0
:1043e000381090000000e0000300320078089000d0
:1043f0000000e900700c98008d0f550019003a007c
:10440000efb197000a0178008b007800080078006f
:1044100015ff07000000e000110034000a0540000d
:10442000fab79f00990c40000e0037000c4f78003f
:10443000990ce8008d06e8004fb297000402e800ee
:10444000c4b79f000e07e800fdb79f00efb09700cc
:10445000818f560078ff35008fbd9700010037002f
:10446000fab79f007fb29700048045000048eb0038
:10447000fe8057000b0078001ff707002fb297004f
:10448000009abe000292be001c0020001fb09700e0
:10449000808f550001003a00ecff2f000c007800df
:1044a0004f0778004f06be004f05be004f04be0008
:1044b0002f01b100000006000a00e800808f5600be
:1044c000b9ff3a00aaff37008000780010002000f2
:1044d00002022000828f500004003200e980500068
:1044e000e48f5000010036000000eb0000000600e1
:1044f000889fbe00000478008004eb000b003700aa
:10450000f1ff07000000e00007003a0038109000bb
:104510000000e00010003200780890000000e90080
:10452000700c98000c0037008904e800f80890002f
:1045300038109000808f5000030031003180fb0064
:10454000710c9800eeff3700080078005b0e070042
:10455000e10f4000eaff3a00090078004f04be0076
:1045600000000600889fbe008a1f78000004be007d
:10457000190078001000fb00d3ff07000005eb00d6
:104580000000e0000900320008007800d8ff0700b2
:10459000000578001900e800800c78001000fb008e
:1045a000c9ff07000000e000faff3a000a007800a7
:1045b0004f0578004f04be00000006001801fa0005
:1045c000889fbe008a9fbe008c9fbe0000057800b9
:1045d000010478008305780004067800680047002d
:1045e000040009000018eb00720798000008200082
:1045f000000f9800880078000a007800d9ff0700b3
:1046000080067800190037007a089000ba109000f0
:10461000810f500003003100b084fb00700d980042
:10462000050037000a007800240e07008004780097
:10463000e18f440007003200180078001000fb00f2
:10464000808f5400030032003a109000e9ff2f00e1
:10465000100137009b0de800180ce8008800780076
:104660000a007800bfff0700808646001800780027
:10467000904078000104e0000300320052c2b30011
:1046800082cf5000e0ff3a009b8d460051c2b3003c
:1046900090cf10008b013a000000e800000c780079
:1046a0008000eb0061079800210f9900a1c2b300c0
:1046b00090cf100003003a00000ce8001100200029
:1046c000210f990018007800d901070060079800b1
:1046d0006102b900612bb9000a007800d20d070011
:1046e00001003700000ce800180078009000fb0083
:1046f0000103b100e98f5000faff3600080078008e
:10470000b4fc070080467800180078001000fb0019
:10471000ef0e070091062000810f50003900320093
:1047200015003c0031062000810f5000a10032002e
:104730000a003c00b1052000810f5000db00320070
:1047400011062000810f5000880032005102200025
:10475000810f50005a013a00ba003700410620008c
:10476000810f50001900320071062000810f5000a7
:1047700053013c007d00370001072000810f5000ed
:104780005900320007003c00e1062000810f500074
:1047900066003200f1062000810f500048013a0007
:1047a0003d00370051072000810f500026003200e5
:1047b00081072000810f50004500320031072000a2
:1047c000810f50003e013a008d0037008b017800c8
:1047d000680147008e0078000a0078004201070057
:1047e000800478000900e00039013500180ce80069
:1047f0008004eb002e0891000000e00034013a0034
:104800000d0037008b017800680147008e007800aa
:104810000a00780034010700800478000900e000f5
:104820002b013500180ce8008004eb00ae08910065
:104830000100e00026013a008d80fb008c01780029
:1048400012002000100037008b017800680147003b
:104850008e0078000a0078002301070080047800a9
:104860000900e0001a013500180ce8008004eb0094
:104870002e0891000000e00015013a008d80fb0039
:104880008c017800090178000e007800dd0e070029
:10489000800478000e0137008b0178006801470022
:1048a0008e0078000a0078000f010700800478006d
:1048b0000900e00006013500180ce8008004eb0058
:1048c000ae0891000100e00001013a00ebff370063
:1048d0008b017800680147008e0078000a0078009c
:1048e00001010700ddff37008b01780068014700f8
:1048f0008e0078000a007800fb0007008004780032
:104900000900e000f2003500180ce8008004eb001c
:10491000ae0891000100e000ed003a008c01780043
:1049200009017800010f2000d7ff3700180ce800bc
:104930001b007800cf80de006109b900009fbe0037
:104940000297be008004eb002e0891000000e000fa
:10495000df003a008d80fb008c01780009017800af
:104960000e007800a70e0700d90037008b017800f1
:10497000680147008e0078000a0078000bfe0700ef
:10498000800478000900e000d1003500180ce80030
:104990008004eb00ae0891000100e000cc003a007a
:1049a0008d80fb000c0178000e007800720e07006d
:1049b000b7ff370000c8b30080cf5600c0003a00f0
:1049c0006e0090000000e00002003a00100020009d
:1049d00060079800180ce8000002eb002e08910018
:1049e0000000e00003003a001c80e900000e78009f
:1049f000100278008b0178000001eb000d003700f9
:104a000000c8b30080cf5600ad003a00180ce80093
:104a10000002eb00ae0891000100e00003003a0044
:104a20001c80e900000e7800100278008b017800ed
:104a300012002000e80047000a007800ab000700e1
:104a400093ff370000c8b30080cf56009c003a00a7
:104a5000180ce800fa0890003a109000808f50007f
:104a6000030031003180fb00710d98000200370017
:104a70000a007800110d070051022000810f50003c
:104a800002003a009b0de800900037003a109000b9
:104a90008004eb000000e0008d0032007a089000f6
:104aa0000000e900700d98008900370000c8b300cd
:104ab00080cf560082003a008006eb002e0891005d
:104ac0000000e00003003a001c80e900000e7800be
:104ad000900678001800e800000c78008004eb00d5
:104ae000e1c5b30090cf100002003a00000ce800ce
:104af0001900200012102000890078007200470081
:104b0000650c07000040eb00205798001800780063
:104b100090407800d2c2b30082cf500005003a0026
:104b2000000ce80010c0b3000940500000c7980016
:104b300029003700d2c5b30082cf500026003a00ca
:104b4000000ce80010c0b3000940500000f79800c6
:104b5000210037000004e00024003200d3c2b3007b
:104b6000834f500015003a00180090001040780064
:104b70000004e00011003200814f50000f003200ad
:104b80000201e800020c780078b897001000fb00e2
:104b9000f200470000804000030037000000e800fa
:104ba00011c0b30009c85000f20147008301500052
:104bb0009200fb00818f5100f8ff3500180078004b
:104bc0009000fb00f380400012c0b3000941510087
:104bd00002f77800000ce800180178001240780015
:104be000d1c5b300814f5000daff3a000d00e0005c
:104bf000180032008d0078000006eb00030037003b
:104c0000895878000c06e8009b0de8007a089000af
:104c10003a119000820f500003003100b084fb0075
:104c2000700d9800050037000a007800310f9900d8
:104c3000a20c070080047800be0891007380440035
:104c40006e4078000004e000edff3a0010003700ed
:104c50009b0de8007a089000ba109000810f500078
:104c600003003100b084fb00700d98000300370092
:104c70000a007800910c07008004780073804400db
:104c80006e4078000004e000f1ff3a000006eb00ff
:104c90003a1090000000e000030032007a08900013
:104ca0000000e900700d98000c00e00004003200e4
:104cb0000d00e000020032008c864600804eeb00c2
:104cc000180ce800e18f4400010032008004eb0082
:104cd000090078004f06be004f05be004f04be001d
:104ce0000080fa000000060000000500000005003a
:104cf0008400fa00889fbe008a1f780000057800b3
:104d000082047800b13f9f000000eb00c03f9f008d
:104d1000000478000d0037000902780083f72f00a7
:104d20008f814100a2f72f000f01410061f72f0092
:104d30008f8040000a00780020fe07008001780084
:104d40000300e00004003500030444003f389700ee
:104d50001004e000f0ff3a00e18f410003003a0048
:104d60000800e00001003a00030478000800780021
:104d70004f0578004f04be000080fa0000000600d6
:104d8000889fbe008a9fbe008c9fbe008005780071
:104d90008106780002067800eb0c900008102000d5
:104da0000c044400080178008000eb000900780042
:104db0007c0b07000000e0000100320009045000f5
:104dc000080578008c0f5400010036000c057800af
:104dd0000a017800890078000d007800ebf20700e6
:104de0000a804400f00d980008844400881598005b
:104df000e80d98000a0078004f06be004f05be007f
:104e00004f04be0000000600800078001000200063
:104e100002022000828f500004003200e98050001e
:104e2000e48f5000010036000000eb000000060097
:104e3000889fbe008a1f7800000578000a04780069
:104e4000984478000805e8000900fb00eeff070021
:104e50000000e000f9ff3a00b0c2b30080cf540078
:104e600005003200d0c2b3008000eb0080cf5400b8
:104e700005003a00020037008000eb000100370017
:104e8000110020000804e8000000eb0003003700d8
:104e9000ea00b900020050000003b0003801fb0036
:104ea00003fd2f0082814100e98f5100f8ff360099
:104eb0000100e00001003a000000ea004f05780020
:104ec0004f04be00000006008000780010002000a3
:104ed00002022000828f500004003200e98050005e
:104ee000e48f5000010036000000eb0000000600d7
:104ef0000800fa00889fbe008a9fbe000004780068
:104f00008105780078089000b8109000810f50005b
:104f100003003100b084fb00700c980003003700e0
:104f200008007800e50b070080047800b00220003c
:104f3000808f5400040032000005eb00d0022000f6
:104f4000808f54001b003a00d982b20009f0a700fc
:104f50008904ea008904e9004f4dde0078089000da
:104f6000b8109000810f500003003100b084fb00a6
:104f7000700c98000300370008007800cf0b070082
:104f80008004780000fd2f0009004000e90f500068
:104f9000080036000b00e0000600320038109000d8
:104fa0000000e00003003200780890000000e900f3
:104fb000700c980000fd2f00090040008005eb00f8
:104fc000e90f500013003600381090000000e00098
:104fd00072003200780890000000e900700c980020
:104fe0006e003700ea59b90080054100780890004a
:104ff000b8109000810f500003003100b084fb0016
:10500000700c98000300370008007800ab0b070015
:105010008004780000fd2f0009004000e90f5000d7
:1050200003003e00b1cc2000818f5500edff34001d
:10503000615ab900612bb90084bf9f0095bf9f00e2
:10504000a6bf9f00b7bf9f001f003700a40020002d
:10505000050020006033b8000fb897009fb8970094
:105060002fb99700bfb99700b7130700cfcdde0067
:105070000082440081824d0002834d0083834d00f5
:105080000403b1000580b1000680b1000780b100c3
:1050900084bf9f0095bf9f00a6bf9f00b7bf9f0022
:1050a00078089000b8109000810f50000300310084
:1050b000b084fb00700c98000300370008007800f3
:1050c0007e0b07008004780000fd2f0009004000df
:1050d000e90f500017003e00d07a240011ae2700df
:1050e00042e12a00731420000fba97009fba97007c
:1050f0002fbb9700bfbb97000020e10001a8e10093
:1051000002b0e10003b8e100d0ff3400090037002d
:1051100078089000810f500003003100b084fb003c
:10512000700c98000300370008007800630b07003c
:10513000800478000903b100b8109000e98f540092
:10514000f3ff36000100e000030032007808900011
:105150000000e900700c98000a00e0001600320020
:105160006000b8006011b8000fba97009fba9700ae
:105170002fbb9700bfbb97000402500085825800e8
:10518000060359008783590084bf9f0095bf9f0085
:10519000a6bf9f00b7bf9f00070037006000b800a0
:1051a000020020000300280080bf9f0091bf9f00e5
:1051b000a2bf9f00b3bf9f000fb897009fb8970092
:1051c0002fb99700bfb997004f05be004f04be002e
:1051d0000080fa00000006000f04b000889fbe00a7
:1051e0008a9fbe008c9fbe008e1f7800000678004c
:1051f000b1a79f00c29f9f00a3a79f00b49f9f00dd
:10520000fc0890003c109000808f5000040031009a
:105210003180fb00710e98000007eb000d00370095
:105220000c007800250b0700fbff3700fc089000fe
:105230003c109000808f5000030031003180fb0053
:10524000710e9800020037000c0078001b0b07005d
:105250001e00200001032000810f5000f3ff3200e8
:105260006022b8006033b80094af9f00a5af9f00e4
:10527000b6af9f00c7af9f008002eb0095a79f00cd
:10528000e1022000810f500023003a00fc0890004a
:105290003c109000808f5000050031003180fb00f1
:1052a000710e98006044b8006055b80011003700d6
:1052b0000c007800010b0700faff3700fc08900093
:1052c0003c109000808f5000030031003180fb00c3
:1052d000710e9800020037000c007800f70a0700f2
:1052e00061045400e0845c0060055d00e0855d00c1
:1052f0001e00200001032000810f5000efff32004c
:1053000098af9f00a9af9f00baaf9f00cbaf9f009f
:105310001500200095a79f006022b8006033b800f8
:10532000d4af9f00e5af9f00f6af9f0087b79f0007
:105330008002eb00a59f9f006022b80006002000bd
:1053400007ff2300d49f9f00e59f9f00f69f9f00cb
:1053500087a79f006044b8006055b8006033b8006c
:10536000f6a79f0087af9f0084003700e10220006e
:10537000810f50000e003a009fa397000700e00045
:105380008b003a005fa89700efa897007fa99700cd
:105390008fb1970090af9f00a1af9f00b2af9f0069
:1053a000c3af9f001100200091a79f006a00370043
:1053b00091032000810f5000030034000050a00032
:1053c0009dfa2f008086460070002000010020001a
:1053d0006011b8005faa9700efaa97007fab970013
:1053e0008fb397000020e10001a8e10002b0e100c6
:1053f00003b8e1000c003c007fa397008fab97003f
:105400004438dd00cc30de00810070004430dd0027
:105410004feade000081460081014a00f2a79f00aa
:1054200083af9f003f003700d00020000100200024
:105430006011b8005faa9700efaa97007fab9700b2
:105440008fb397000020e10001a8e10002b0e10065
:1054500003b8e1001d003c006022b80006002000f7
:1054600007fb23005f989700ef9897007f999700bc
:105470008fa197008f1007000002be000203be003c
:10548000d49f9f00e59f9f00f69f9f0087a79f00e6
:105490006168b9004b0f07005f9a9700ef9a970079
:1054a0007f9b97008fa39700821007000002be0029
:1054b0000203be000800be000a01be00830f070001
:1054c0000004be000205be00160037000d00e0001b
:1054d00014003200af9a97000500e00011003a0076
:1054e0006022b8000600200007fe23005f989700a6
:1054f000ef9897007f9997008fa197006d10070094
:105500000002be000203be000800be000a01be0089
:105510006e0f07000004be000205be00160020004a
:10552000a69f9f005fa89700efa897007fa997000c
:105530008fb1970061004000e080480060014900a1
:10554000e0814900d0af9f00e1af9f00f2af9f0024
:1055500083b79f001e002000fc0890003c109000c4
:10556000808f5000030031003180fb00710e9800e5
:10557000020037000c007800500a07000dfd2f00d4
:1055800080864600e98f560078ff3600800078005c
:105590000150a0001106b100e58f500073ff3600e6
:1055a000e1022000810f500073ff3200010037003c
:1055b000e00220000e00e0001e003a003c109000c7
:1055c0000000e00003003200fc0890008100e900c8
:1055d000710e9800bf9897000100e0000e003200a5
:1055e0000000e00003003200fc0890008100e900a8
:1055f000710e98001fa197000200e0000a0032001f
:105600000000e000080032007c0890000000e90083
:10561000700e9800040037006022b8006033b800b4
:105620000c007800000a0700afa197006118b900cc
:10563000510037001fa297000400e00016003a0056
:105640005faa9700efaa97007fab97008fb39700f0
:1056500094af9f00a5af9f00b6af9f00c7af9f005c
:10566000110037007fa197008fa997004418dd0033
:10567000cc10de00810070004410dd00f0a79f0018
:1056800081af9f0061024200e0824a0060034b004c
:10569000e0834b00050037005faa9700efaa970050
:1056a0007fab97008fb397008006780070002000d2
